:020000040000FA
:1000000001288316013085000030860083128501A7
:100010008601A1010130A2004230A4005A30A7009D
:100020000B30B7000430B8000C30B9000130BA0012
:100030000F30BB000030BC000930B3000030B4000A
:100040000A30B5000F30B6000130BF000230C000EA
:100050000330C1000430C2000530C3000630C400C4
:1000600086140615C501C601C70185150E210515A3
:100070008514851109214D20A809A9092708A60280
:10008000031D48280130C8008520B720E920322808
:10009000C80803193228C80346280030B1000830C8
:1000A000B00083133108142184000008A000B10AB5
:1000B000310814218400A00C031C69287728B003A0
:1000C000B008031D5B28B10A12303102031D4F280E
:1000D0000800851005110E21051873287528800C5D
:1000E00005150E215F2803146F2803106F2885144F
:1000F00005110E21051881288328A50C05150E2150
:100100005F2803147D2803107D2855302A02031828
:10011000972855302B0203188F2845170800AA305E
:100120002B0203189528C517080045140800AA30AB
:100130002A020318A92855302B020318A128C51636
:100140000800AA302B020318A72846140800C5147B
:10015000080055302B020318AF2845160800AA30B6
:100160002B020318B528C5150800451508005530A1
:100170002C020318C92855302D020318C12847172F
:100180000800AA302D020318C728C7170800471413
:100190000800AA302C020318DB2855302D02031862
:1001A000D328C7160800AA302D020318D928C61470
:1001B0000800C714080055302D020318E12847161F
:1001C0000800AA302D020318E728C71508004715B4
:1001D00008000030B1000830B000831331086222FB
:1001E00084000008B2008610B20D0318072906101B
:1001F000061106150611B003B008031DF4283118C6
:100200008614B10A14303102031DEB2808000614CD
:10021000F8285330AE00AE0B0B2908002930AF0090
:10022000AF0B1029000008000A108A14503E82000B
:1004A000223423342434253421342634213428348E
:1004B0002134293421342A3421342B3421342C346E
:0A04C00021342D340A148A1482003E
:100600003734383439343A343B343C34333434348A
:10061000353436343F342834403429344134453479
:080620004234473443344634F0
:02400E00F23F7F
:00000001FF
