:020000040000FA
:1000000001288316013085000030860083128501A7
:100010008601A1010130A2004230A4005A30A7009D
:100020008515BA20051585148511B5202320A8094A
:10003000A9092708A602031D212886015B20882024
:100040001028860110280030AE000830AF0083135E
:100050002E08CE2084000008A000AE0A2E08CE2074
:100060008400A00C031C3F284D28AF03AF08031DDC
:100070003128AE0A12302E02031D252808008510F3
:100080000511BA20051849284B28800C0515BA20FF
:100090003528031445280310452885140511BA2076
:1000A000051857285928A50C0515BA20352803141A
:1000B00053280310532855302A0203186B28553053
:1000C0002B02031864280800AA302B0203186A28A0
:1000D000861608000800AA302A0203187C2855302A
:1000E0002B020318752806170800AA302B020318E4
:1000F0007A2808000616080055302B0203188128BC
:100100000800AA302B020318872886170800080069
:1001100055302C020318982855302D0203189128C9
:100120000800AA302D02031897288614080008003A
:10013000AA302C020318A92855302D020318A22832
:1001400086150800AA302D020318A72808000614F7
:10015000080055302D020318AE280800AA302D02E1
:100160000318B4280615080008005330B000B00B7F
:10017000B72808002930B100B10BBC2800000800E6
:100180001630B3007430B4000630B500B30BC92884
:10019000B40BCB28B50BC628000008000A148A143B
:0201A0008200DB
:10060000223423342434253421342634213428342C
:100610002134293421342A3421342B3421342C340C
:0406200021342D3420
:02400E00F23F7F
:00000001FF
