:020000040000FA
:1000000001288316013085000030860083128501A7
:1000100086018515C420051585148511C420061494
:10002000332006108614D8203C2086100615D820D0
:10003000452006118615D8204E2086110616D82098
:100040007F2006128616D820A82086128616D82071
:10005000A82086128616D820A82086128616D820B8
:10006000A82086120928E420DE20DE20DE20DE2003
:10007000DE20DE20DE200800DE20E420DE20DE2080
:10008000DE20DE20E420DE200800DE20DE20DE2070
:10009000DE20DE20DE20DE20DE200800C4208510E9
:1000A0000511C420051806170515C4208510051173
:1000B000C420051806160515C42085100511C42096
:1000C000051886160515C42085100511C4200518CD
:1000D00086170515C42085100511C4200515C420F8
:1000E00085100511C4200515C42085100511C420F4
:1000F0000515C42085100511C42005150800C4206D
:1001000085100511C4200515C42085100511C420D3
:100110000515C42085100511C4200515C4208510BF
:100120000511C4200515C42085100511C42005152E
:10013000C42085100511C4200515C42085100511A3
:10014000C4200515C42085100511C420051508001C
:10015000DE20DE20DE20DE20DE20DE20DE20DE20AF
:1001600008000730A300DE20A30BB32808000130ED
:10017000A2000030A1000030A000A00BBD28A10B00
:10018000BB28A20BB92808000630A400A40BC6287F
:10019000000008001630A5007430A6000630A70045
:1001A000A50BD328A60BD528A70BD0280000080044
:1001B0006330A800A80BDA28DD280800C4208510C9
:1001C0000511C42005150800C42085140511C4209C
:0401D0000515080009
:02400E00F23F7F
:00000001FF
